{
  "contracts/ComeFundMe.sol": {
    "ComeFundMe": {
      "abi": [
        {
          "anonymous": false,
          "inputs": [
            {
              "indexed": false,
              "internalType": "bytes32",
              "name": "campaignId",
              "type": "bytes32"
            },
            {
              "indexed": false,
              "internalType": "address",
              "name": "donor",
              "type": "address"
            },
            {
              "indexed": false,
              "internalType": "uint256",
              "name": "amount",
              "type": "uint256"
            }
          ],
          "name": "CampaignDonationReceived",
          "type": "event"
        },
        {
          "anonymous": false,
          "inputs": [
            {
              "indexed": false,
              "internalType": "bytes32",
              "name": "campaignId",
              "type": "bytes32"
            },
            {
              "indexed": false,
              "internalType": "uint256",
              "name": "fundsRaised",
              "type": "uint256"
            }
          ],
          "name": "CampaignEnded",
          "type": "event"
        },
        {
          "anonymous": false,
          "inputs": [
            {
              "indexed": false,
              "internalType": "bytes32",
              "name": "campaignId",
              "type": "bytes32"
            }
          ],
          "name": "CampaignStarted",
          "type": "event"
        },
        {
          "anonymous": false,
          "inputs": [
            {
              "indexed": true,
              "internalType": "address",
              "name": "previousOwner",
              "type": "address"
            },
            {
              "indexed": true,
              "internalType": "address",
              "name": "newOwner",
              "type": "address"
            }
          ],
          "name": "OwnershipTransferred",
          "type": "event"
        },
        {
          "anonymous": false,
          "inputs": [
            {
              "indexed": false,
              "internalType": "address",
              "name": "account",
              "type": "address"
            }
          ],
          "name": "Paused",
          "type": "event"
        },
        {
          "anonymous": false,
          "inputs": [
            {
              "indexed": false,
              "internalType": "address",
              "name": "account",
              "type": "address"
            }
          ],
          "name": "Unpaused",
          "type": "event"
        },
        {
          "inputs": [
            {
              "internalType": "bytes32",
              "name": "campaignId",
              "type": "bytes32"
            }
          ],
          "name": "donateToCampaign",
          "outputs": [],
          "stateMutability": "payable",
          "type": "function"
        },
        {
          "inputs": [
            {
              "internalType": "bytes32",
              "name": "campaignId",
              "type": "bytes32"
            }
          ],
          "name": "endCampaign",
          "outputs": [],
          "stateMutability": "nonpayable",
          "type": "function"
        },
        {
          "inputs": [
            {
              "internalType": "bytes32",
              "name": "campaignId",
              "type": "bytes32"
            }
          ],
          "name": "getCampaign",
          "outputs": [
            {
              "components": [
                {
                  "internalType": "bool",
                  "name": "isAlive",
                  "type": "bool"
                },
                {
                  "internalType": "address",
                  "name": "initiator",
                  "type": "address"
                },
                {
                  "internalType": "uint256",
                  "name": "fundsRaised",
                  "type": "uint256"
                },
                {
                  "internalType": "string",
                  "name": "title",
                  "type": "string"
                },
                {
                  "internalType": "string",
                  "name": "description",
                  "type": "string"
                }
              ],
              "internalType": "struct ComeFundMe.Campaign",
              "name": "",
              "type": "tuple"
            }
          ],
          "stateMutability": "view",
          "type": "function"
        },
        {
          "inputs": [
            {
              "internalType": "address",
              "name": "initiator",
              "type": "address"
            },
            {
              "internalType": "string",
              "name": "title",
              "type": "string"
            },
            {
              "internalType": "string",
              "name": "description",
              "type": "string"
            }
          ],
          "name": "getCampaignId",
          "outputs": [
            {
              "internalType": "bytes32",
              "name": "",
              "type": "bytes32"
            }
          ],
          "stateMutability": "pure",
          "type": "function"
        },
        {
          "inputs": [],
          "name": "owner",
          "outputs": [
            {
              "internalType": "address",
              "name": "",
              "type": "address"
            }
          ],
          "stateMutability": "view",
          "type": "function"
        },
        {
          "inputs": [],
          "name": "paused",
          "outputs": [
            {
              "internalType": "bool",
              "name": "",
              "type": "bool"
            }
          ],
          "stateMutability": "view",
          "type": "function"
        },
        {
          "inputs": [],
          "name": "renounceOwnership",
          "outputs": [],
          "stateMutability": "nonpayable",
          "type": "function"
        },
        {
          "inputs": [
            {
              "internalType": "string",
              "name": "title",
              "type": "string"
            },
            {
              "internalType": "string",
              "name": "description",
              "type": "string"
            }
          ],
          "name": "startCampaign",
          "outputs": [],
          "stateMutability": "nonpayable",
          "type": "function"
        },
        {
          "inputs": [],
          "name": "togglePause",
          "outputs": [],
          "stateMutability": "nonpayable",
          "type": "function"
        },
        {
          "inputs": [
            {
              "internalType": "address",
              "name": "newOwner",
              "type": "address"
            }
          ],
          "name": "transferOwnership",
          "outputs": [],
          "stateMutability": "nonpayable",
          "type": "function"
        }
      ],
      "evm": {
        "bytecode": {
          "linkReferences": {},
          "object": "608060405234801561001057600080fd5b5061002d61002261004c60201b60201c565b61005460201b60201c565b60008060146101000a81548160ff021916908315150217905550610118565b600033905090565b60008060009054906101000a900473ffffffffffffffffffffffffffffffffffffffff169050816000806101000a81548173ffffffffffffffffffffffffffffffffffffffff021916908373ffffffffffffffffffffffffffffffffffffffff1602179055508173ffffffffffffffffffffffffffffffffffffffff168173ffffffffffffffffffffffffffffffffffffffff167f8be0079c531659141344cd1fd0a4f28419497f9722a3daafe3b4186f6b6457e060405160405180910390a35050565b61167e806101276000396000f3fe6080604052600436106100915760003560e01c8063c4ae316811610059578063c4ae316814610155578063cabe04521461016c578063e13475c8146101a9578063e1b86016146101c5578063f2fde38b1461020257610091565b806329777bc6146100965780635c975abb146100bf578063715018a6146100ea5780638c26a73d146101015780638da5cb5b1461012a575b600080fd5b3480156100a257600080fd5b506100bd60048036038101906100b89190610e42565b61022b565b005b3480156100cb57600080fd5b506100d4610401565b6040516100e19190611185565b60405180910390f35b3480156100f657600080fd5b506100ff610417565b005b34801561010d57600080fd5b5061012860048036038101906101239190610e6b565b61042b565b005b34801561013657600080fd5b5061013f6105de565b60405161014c9190611121565b60405180910390f35b34801561016157600080fd5b5061016a610607565b005b34801561017857600080fd5b50610193600480360381019061018e9190610e42565b610633565b6040516101a091906112fb565b60405180910390f35b6101c360048036038101906101be9190610e42565b6107ff565b005b3480156101d157600080fd5b506101ec60048036038101906101e79190610db9565b6108d0565b6040516101f991906111a0565b60405180910390f35b34801561020e57600080fd5b5061022960048036038101906102249190610d90565b61090c565b005b610233610990565b60006001600083815260200190815260200160002090506102526109da565b73ffffffffffffffffffffffffffffffffffffffff168160000160019054906101000a900473ffffffffffffffffffffffffffffffffffffffff1673ffffffffffffffffffffffffffffffffffffffff16146102e3576040517f08c379a00000000000000000000000000000000000000000000000000000000081526004016102da9061121b565b60405180910390fd5b8060000160009054906101000a900460ff16610334576040517f08c379a000000000000000000000000000000000000000000000000000000000815260040161032b9061123b565b60405180910390fd5b60008160000160006101000a81548160ff0219169083151502179055508060000160019054906101000a900473ffffffffffffffffffffffffffffffffffffffff1673ffffffffffffffffffffffffffffffffffffffff166108fc82600101549081150290604051600060405180830381858888f193505050501580156103bf573d6000803e3d6000fd5b507f9d66a5806d3b6212b52c01c830bb2233bd5e58aff556c57c924f026dffbfda298282600101546040516103f59291906111f2565b60405180910390a15050565b60008060149054906101000a900460ff16905090565b61041f6109e2565b6104296000610a60565b565b610433610990565b60006104496104406109da565b868686866108d0565b905060006001600083815260200190815260200160002090508060000160009054906101000a900460ff161580156104d15750600073ffffffffffffffffffffffffffffffffffffffff168160000160019054906101000a900473ffffffffffffffffffffffffffffffffffffffff1673ffffffffffffffffffffffffffffffffffffffff16145b610510576040517f08c379a0000000000000000000000000000000000000000000000000000000008152600401610507906112bb565b60405180910390fd5b60018160000160006101000a81548160ff0219169083151502179055506105356109da565b8160000160016101000a81548173ffffffffffffffffffffffffffffffffffffffff021916908373ffffffffffffffffffffffffffffffffffffffff160217905550858582600201919061058a929190610c32565b50838382600301919061059e929190610c32565b507f9bb2c9788fbe26c00be74305fbebeb1b918f56515eb45a297d2105decae3755f826040516105ce91906111a0565b60405180910390a1505050505050565b60008060009054906101000a900473ffffffffffffffffffffffffffffffffffffffff16905090565b61060f6109e2565b610617610401565b61062857610623610b24565b610631565b610630610b87565b5b565b61063b610cb8565b600160008381526020019081526020016000206040518060a00160405290816000820160009054906101000a900460ff161515151581526020016000820160019054906101000a900473ffffffffffffffffffffffffffffffffffffffff1673ffffffffffffffffffffffffffffffffffffffff1673ffffffffffffffffffffffffffffffffffffffff168152602001600182015481526020016002820180546106e490611434565b80601f016020809104026020016040519081016040528092919081815260200182805461071090611434565b801561075d5780601f106107325761010080835404028352916020019161075d565b820191906000526020600020905b81548152906001019060200180831161074057829003601f168201915b5050505050815260200160038201805461077690611434565b80601f01602080910402602001604051908101604052809291908181526020018280546107a290611434565b80156107ef5780601f106107c4576101008083540402835291602001916107ef565b820191906000526020600020905b8154815290600101906020018083116107d257829003601f168201915b5050505050815250509050919050565b610807610990565b60006001600083815260200190815260200160002090508060000160009054906101000a900460ff1661086f576040517f08c379a00000000000000000000000000000000000000000000000000000000081526004016108669061123b565b60405180910390fd5b34816001016000828254610883919061134a565b925050819055507f9923008504d88018be8237b38fc9e7fe856efd8a47be5adf7c6ee48fff5beb21826108b46109da565b346040516108c4939291906111bb565b60405180910390a15050565b600085858585856040516020016108eb95949392919061113c565b60405160208183030381529060405280519060200120905095945050505050565b6109146109e2565b600073ffffffffffffffffffffffffffffffffffffffff168173ffffffffffffffffffffffffffffffffffffffff161415610984576040517f08c379a000000000000000000000000000000000000000000000000000000000815260040161097b9061127b565b60405180910390fd5b61098d81610a60565b50565b610998610401565b156109d8576040517f08c379a00000000000000000000000000000000000000000000000000000000081526004016109cf9061129b565b60405180910390fd5b565b600033905090565b6109ea6109da565b73ffffffffffffffffffffffffffffffffffffffff16610a086105de565b73ffffffffffffffffffffffffffffffffffffffff1614610a5e576040517f08c379a0000000000000000000000000000000000000000000000000000000008152600401610a55906112db565b60405180910390fd5b565b60008060009054906101000a900473ffffffffffffffffffffffffffffffffffffffff169050816000806101000a81548173ffffffffffffffffffffffffffffffffffffffff021916908373ffffffffffffffffffffffffffffffffffffffff1602179055508173ffffffffffffffffffffffffffffffffffffffff168173ffffffffffffffffffffffffffffffffffffffff167f8be0079c531659141344cd1fd0a4f28419497f9722a3daafe3b4186f6b6457e060405160405180910390a35050565b610b2c610990565b6001600060146101000a81548160ff0219169083151502179055507f62e78cea01bee320cd4e420270b5ea74000d11b0c9f74754ebdbfc544b05a258610b706109da565b604051610b7d9190611121565b60405180910390a1565b610b8f610be9565b60008060146101000a81548160ff0219169083151502179055507f5db9ee0a495bf2e6ff9c91a7834c1ba4fdd244a5e8aa4e537bd38aeae4b073aa610bd26109da565b604051610bdf9190611121565b60405180910390a1565b610bf1610401565b610c30576040517f08c379a0000000000000000000000000000000000000000000000000000000008152600401610c279061125b565b60405180910390fd5b565b828054610c3e90611434565b90600052602060002090601f016020900481019282610c605760008555610ca7565b82601f10610c7957803560ff1916838001178555610ca7565b82800160010185558215610ca7579182015b82811115610ca6578235825591602001919060010190610c8b565b5b509050610cb49190610cff565b5090565b6040518060a00160405280600015158152602001600073ffffffffffffffffffffffffffffffffffffffff1681526020016000815260200160608152602001606081525090565b5b80821115610d18576000816000905550600101610d00565b5090565b600081359050610d2b8161161a565b92915050565b600081359050610d4081611631565b92915050565b60008083601f840112610d5857600080fd5b8235905067ffffffffffffffff811115610d7157600080fd5b602083019150836001820283011115610d8957600080fd5b9250929050565b600060208284031215610da257600080fd5b6000610db084828501610d1c565b91505092915050565b600080600080600060608688031215610dd157600080fd5b6000610ddf88828901610d1c565b955050602086013567ffffffffffffffff811115610dfc57600080fd5b610e0888828901610d46565b9450945050604086013567ffffffffffffffff811115610e2757600080fd5b610e3388828901610d46565b92509250509295509295909350565b600060208284031215610e5457600080fd5b6000610e6284828501610d31565b91505092915050565b60008060008060408587031215610e8157600080fd5b600085013567ffffffffffffffff811115610e9b57600080fd5b610ea787828801610d46565b9450945050602085013567ffffffffffffffff811115610ec657600080fd5b610ed287828801610d46565b925092505092959194509250565b610ee9816113a0565b82525050565b610ef8816113a0565b82525050565b610f07816113b2565b82525050565b610f16816113b2565b82525050565b610f25816113be565b82525050565b6000610f378385611339565b9350610f448385846113f2565b610f4d836114c4565b840190509392505050565b6000610f638261131d565b610f6d8185611328565b9350610f7d818560208601611401565b610f86816114c4565b840191505092915050565b6000610f9e601283611339565b9150610fa9826114d5565b602082019050919050565b6000610fc1600d83611339565b9150610fcc826114fe565b602082019050919050565b6000610fe4601483611339565b9150610fef82611527565b602082019050919050565b6000611007602683611339565b915061101282611550565b604082019050919050565b600061102a601083611339565b91506110358261159f565b602082019050919050565b600061104d600f83611339565b9150611058826115c8565b602082019050919050565b6000611070602083611339565b915061107b826115f1565b602082019050919050565b600060a08301600083015161109e6000860182610efe565b5060208301516110b16020860182610ee0565b5060408301516110c46040860182611103565b50606083015184820360608601526110dc8282610f58565b915050608083015184820360808601526110f68282610f58565b9150508091505092915050565b61110c816113e8565b82525050565b61111b816113e8565b82525050565b60006020820190506111366000830184610eef565b92915050565b60006060820190506111516000830188610eef565b8181036020830152611164818688610f2b565b90508181036040830152611179818486610f2b565b90509695505050505050565b600060208201905061119a6000830184610f0d565b92915050565b60006020820190506111b56000830184610f1c565b92915050565b60006060820190506111d06000830186610f1c565b6111dd6020830185610eef565b6111ea6040830184611112565b949350505050565b60006040820190506112076000830185610f1c565b6112146020830184611112565b9392505050565b6000602082019050818103600083015261123481610f91565b9050919050565b6000602082019050818103600083015261125481610fb4565b9050919050565b6000602082019050818103600083015261127481610fd7565b9050919050565b6000602082019050818103600083015261129481610ffa565b9050919050565b600060208201905081810360008301526112b48161101d565b9050919050565b600060208201905081810360008301526112d481611040565b9050919050565b600060208201905081810360008301526112f481611063565b9050919050565b600060208201905081810360008301526113158184611086565b905092915050565b600081519050919050565b600082825260208201905092915050565b600082825260208201905092915050565b6000611355826113e8565b9150611360836113e8565b9250827fffffffffffffffffffffffffffffffffffffffffffffffffffffffffffffffff0382111561139557611394611466565b5b828201905092915050565b60006113ab826113c8565b9050919050565b60008115159050919050565b6000819050919050565b600073ffffffffffffffffffffffffffffffffffffffff82169050919050565b6000819050919050565b82818337600083830152505050565b60005b8381101561141f578082015181840152602081019050611404565b8381111561142e576000848401525b50505050565b6000600282049050600182168061144c57607f821691505b602082108114156114605761145f611495565b5b50919050565b7f4e487b7100000000000000000000000000000000000000000000000000000000600052601160045260246000fd5b7f4e487b7100000000000000000000000000000000000000000000000000000000600052602260045260246000fd5b6000601f19601f8301169050919050565b7f4e6f742063616d706169676e206f776e65720000000000000000000000000000600082015250565b7f416c726561647920656e64656400000000000000000000000000000000000000600082015250565b7f5061757361626c653a206e6f7420706175736564000000000000000000000000600082015250565b7f4f776e61626c653a206e6577206f776e657220697320746865207a65726f206160008201527f6464726573730000000000000000000000000000000000000000000000000000602082015250565b7f5061757361626c653a2070617573656400000000000000000000000000000000600082015250565b7f43616d706169676e206578697374730000000000000000000000000000000000600082015250565b7f4f776e61626c653a2063616c6c6572206973206e6f7420746865206f776e6572600082015250565b611623816113a0565b811461162e57600080fd5b50565b61163a816113be565b811461164557600080fd5b5056fea2646970667358221220dfa7dee980c290f4428a2aac1734eb383a39ff8318628ed7d4376a6f23989b2964736f6c63430008040033",
          "opcodes": "PUSH1 0x80 PUSH1 0x40 MSTORE CALLVALUE DUP1 ISZERO PUSH2 0x10 JUMPI PUSH1 0x0 DUP1 REVERT JUMPDEST POP PUSH2 0x2D PUSH2 0x22 PUSH2 0x4C PUSH1 0x20 SHL PUSH1 0x20 SHR JUMP JUMPDEST PUSH2 0x54 PUSH1 0x20 SHL PUSH1 0x20 SHR JUMP JUMPDEST PUSH1 0x0 DUP1 PUSH1 0x14 PUSH2 0x100 EXP DUP2 SLOAD DUP2 PUSH1 0xFF MUL NOT AND SWAP1 DUP4 ISZERO ISZERO MUL OR SWAP1 SSTORE POP PUSH2 0x118 JUMP JUMPDEST PUSH1 0x0 CALLER SWAP1 POP SWAP1 JUMP JUMPDEST PUSH1 0x0 DUP1 PUSH1 0x0 SWAP1 SLOAD SWAP1 PUSH2 0x100 EXP SWAP1 DIV PUSH20 0xFFFFFFFFFFFFFFFFFFFFFFFFFFFFFFFFFFFFFFFF AND SWAP1 POP DUP2 PUSH1 0x0 DUP1 PUSH2 0x100 EXP DUP2 SLOAD DUP2 PUSH20 0xFFFFFFFFFFFFFFFFFFFFFFFFFFFFFFFFFFFFFFFF MUL NOT AND SWAP1 DUP4 PUSH20 0xFFFFFFFFFFFFFFFFFFFFFFFFFFFFFFFFFFFFFFFF AND MUL OR SWAP1 SSTORE POP DUP2 PUSH20 0xFFFFFFFFFFFFFFFFFFFFFFFFFFFFFFFFFFFFFFFF AND DUP2 PUSH20 0xFFFFFFFFFFFFFFFFFFFFFFFFFFFFFFFFFFFFFFFF AND PUSH32 0x8BE0079C531659141344CD1FD0A4F28419497F9722A3DAAFE3B4186F6B6457E0 PUSH1 0x40 MLOAD PUSH1 0x40 MLOAD DUP1 SWAP2 SUB SWAP1 LOG3 POP POP JUMP JUMPDEST PUSH2 0x167E DUP1 PUSH2 0x127 PUSH1 0x0 CODECOPY PUSH1 0x0 RETURN INVALID PUSH1 0x80 PUSH1 0x40 MSTORE PUSH1 0x4 CALLDATASIZE LT PUSH2 0x91 JUMPI PUSH1 0x0 CALLDATALOAD PUSH1 0xE0 SHR DUP1 PUSH4 0xC4AE3168 GT PUSH2 0x59 JUMPI DUP1 PUSH4 0xC4AE3168 EQ PUSH2 0x155 JUMPI DUP1 PUSH4 0xCABE0452 EQ PUSH2 0x16C JUMPI DUP1 PUSH4 0xE13475C8 EQ PUSH2 0x1A9 JUMPI DUP1 PUSH4 0xE1B86016 EQ PUSH2 0x1C5 JUMPI DUP1 PUSH4 0xF2FDE38B EQ PUSH2 0x202 JUMPI PUSH2 0x91 JUMP JUMPDEST DUP1 PUSH4 0x29777BC6 EQ PUSH2 0x96 JUMPI DUP1 PUSH4 0x5C975ABB EQ PUSH2 0xBF JUMPI DUP1 PUSH4 0x715018A6 EQ PUSH2 0xEA JUMPI DUP1 PUSH4 0x8C26A73D EQ PUSH2 0x101 JUMPI DUP1 PUSH4 0x8DA5CB5B EQ PUSH2 0x12A JUMPI JUMPDEST PUSH1 0x0 DUP1 REVERT JUMPDEST CALLVALUE DUP1 ISZERO PUSH2 0xA2 JUMPI PUSH1 0x0 DUP1 REVERT JUMPDEST POP PUSH2 0xBD PUSH1 0x4 DUP1 CALLDATASIZE SUB DUP2 ADD SWAP1 PUSH2 0xB8 SWAP2 SWAP1 PUSH2 0xE42 JUMP JUMPDEST PUSH2 0x22B JUMP JUMPDEST STOP JUMPDEST CALLVALUE DUP1 ISZERO PUSH2 0xCB JUMPI PUSH1 0x0 DUP1 REVERT JUMPDEST POP PUSH2 0xD4 PUSH2 0x401 JUMP JUMPDEST PUSH1 0x40 MLOAD PUSH2 0xE1 SWAP2 SWAP1 PUSH2 0x1185 JUMP JUMPDEST PUSH1 0x40 MLOAD DUP1 SWAP2 SUB SWAP1 RETURN JUMPDEST CALLVALUE DUP1 ISZERO PUSH2 0xF6 JUMPI PUSH1 0x0 DUP1 REVERT JUMPDEST POP PUSH2 0xFF PUSH2 0x417 JUMP JUMPDEST STOP JUMPDEST CALLVALUE DUP1 ISZERO PUSH2 0x10D JUMPI PUSH1 0x0 DUP1 REVERT JUMPDEST POP PUSH2 0x128 PUSH1 0x4 DUP1 CALLDATASIZE SUB DUP2 ADD SWAP1 PUSH2 0x123 SWAP2 SWAP1 PUSH2 0xE6B JUMP JUMPDEST PUSH2 0x42B JUMP JUMPDEST STOP JUMPDEST CALLVALUE DUP1 ISZERO PUSH2 0x136 JUMPI PUSH1 0x0 DUP1 REVERT JUMPDEST POP PUSH2 0x13F PUSH2 0x5DE JUMP JUMPDEST PUSH1 0x40 MLOAD PUSH2 0x14C SWAP2 SWAP1 PUSH2 0x1121 JUMP JUMPDEST PUSH1 0x40 MLOAD DUP1 SWAP2 SUB SWAP1 RETURN JUMPDEST CALLVALUE DUP1 ISZERO PUSH2 0x161 JUMPI PUSH1 0x0 DUP1 REVERT JUMPDEST POP PUSH2 0x16A PUSH2 0x607 JUMP JUMPDEST STOP JUMPDEST CALLVALUE DUP1 ISZERO PUSH2 0x178 JUMPI PUSH1 0x0 DUP1 REVERT JUMPDEST POP PUSH2 0x193 PUSH1 0x4 DUP1 CALLDATASIZE SUB DUP2 ADD SWAP1 PUSH2 0x18E SWAP2 SWAP1 PUSH2 0xE42 JUMP JUMPDEST PUSH2 0x633 JUMP JUMPDEST PUSH1 0x40 MLOAD PUSH2 0x1A0 SWAP2 SWAP1 PUSH2 0x12FB JUMP JUMPDEST PUSH1 0x40 MLOAD DUP1 SWAP2 SUB SWAP1 RETURN JUMPDEST PUSH2 0x1C3 PUSH1 0x4 DUP1 CALLDATASIZE SUB DUP2 ADD SWAP1 PUSH2 0x1BE SWAP2 SWAP1 PUSH2 0xE42 JUMP JUMPDEST PUSH2 0x7FF JUMP JUMPDEST STOP JUMPDEST CALLVALUE DUP1 ISZERO PUSH2 0x1D1 JUMPI PUSH1 0x0 DUP1 REVERT JUMPDEST POP PUSH2 0x1EC PUSH1 0x4 DUP1 CALLDATASIZE SUB DUP2 ADD SWAP1 PUSH2 0x1E7 SWAP2 SWAP1 PUSH2 0xDB9 JUMP JUMPDEST PUSH2 0x8D0 JUMP JUMPDEST PUSH1 0x40 MLOAD PUSH2 0x1F9 SWAP2 SWAP1 PUSH2 0x11A0 JUMP JUMPDEST PUSH1 0x40 MLOAD DUP1 SWAP2 SUB SWAP1 RETURN JUMPDEST CALLVALUE DUP1 ISZERO PUSH2 0x20E JUMPI PUSH1 0x0 DUP1 REVERT JUMPDEST POP PUSH2 0x229 PUSH1 0x4 DUP1 CALLDATASIZE SUB DUP2 ADD SWAP1 PUSH2 0x224 SWAP2 SWAP1 PUSH2 0xD90 JUMP JUMPDEST PUSH2 0x90C JUMP JUMPDEST STOP JUMPDEST PUSH2 0x233 PUSH2 0x990 JUMP JUMPDEST PUSH1 0x0 PUSH1 0x1 PUSH1 0x0 DUP4 DUP2 MSTORE PUSH1 0x20 ADD SWAP1 DUP2 MSTORE PUSH1 0x20 ADD PUSH1 0x0 KECCAK256 SWAP1 POP PUSH2 0x252 PUSH2 0x9DA JUMP JUMPDEST PUSH20 0xFFFFFFFFFFFFFFFFFFFFFFFFFFFFFFFFFFFFFFFF AND DUP2 PUSH1 0x0 ADD PUSH1 0x1 SWAP1 SLOAD SWAP1 PUSH2 0x100 EXP SWAP1 DIV PUSH20 0xFFFFFFFFFFFFFFFFFFFFFFFFFFFFFFFFFFFFFFFF AND PUSH20 0xFFFFFFFFFFFFFFFFFFFFFFFFFFFFFFFFFFFFFFFF AND EQ PUSH2 0x2E3 JUMPI PUSH1 0x40 MLOAD PUSH32 0x8C379A000000000000000000000000000000000000000000000000000000000 DUP2 MSTORE PUSH1 0x4 ADD PUSH2 0x2DA SWAP1 PUSH2 0x121B JUMP JUMPDEST PUSH1 0x40 MLOAD DUP1 SWAP2 SUB SWAP1 REVERT JUMPDEST DUP1 PUSH1 0x0 ADD PUSH1 0x0 SWAP1 SLOAD SWAP1 PUSH2 0x100 EXP SWAP1 DIV PUSH1 0xFF AND PUSH2 0x334 JUMPI PUSH1 0x40 MLOAD PUSH32 0x8C379A000000000000000000000000000000000000000000000000000000000 DUP2 MSTORE PUSH1 0x4 ADD PUSH2 0x32B SWAP1 PUSH2 0x123B JUMP JUMPDEST PUSH1 0x40 MLOAD DUP1 SWAP2 SUB SWAP1 REVERT JUMPDEST PUSH1 0x0 DUP2 PUSH1 0x0 ADD PUSH1 0x0 PUSH2 0x100 EXP DUP2 SLOAD DUP2 PUSH1 0xFF MUL NOT AND SWAP1 DUP4 ISZERO ISZERO MUL OR SWAP1 SSTORE POP DUP1 PUSH1 0x0 ADD PUSH1 0x1 SWAP1 SLOAD SWAP1 PUSH2 0x100 EXP SWAP1 DIV PUSH20 0xFFFFFFFFFFFFFFFFFFFFFFFFFFFFFFFFFFFFFFFF AND PUSH20 0xFFFFFFFFFFFFFFFFFFFFFFFFFFFFFFFFFFFFFFFF AND PUSH2 0x8FC DUP3 PUSH1 0x1 ADD SLOAD SWAP1 DUP2 ISZERO MUL SWAP1 PUSH1 0x40 MLOAD PUSH1 0x0 PUSH1 0x40 MLOAD DUP1 DUP4 SUB DUP2 DUP6 DUP9 DUP9 CALL SWAP4 POP POP POP POP ISZERO DUP1 ISZERO PUSH2 0x3BF JUMPI RETURNDATASIZE PUSH1 0x0 DUP1 RETURNDATACOPY RETURNDATASIZE PUSH1 0x0 REVERT JUMPDEST POP PUSH32 0x9D66A5806D3B6212B52C01C830BB2233BD5E58AFF556C57C924F026DFFBFDA29 DUP3 DUP3 PUSH1 0x1 ADD SLOAD PUSH1 0x40 MLOAD PUSH2 0x3F5 SWAP3 SWAP2 SWAP1 PUSH2 0x11F2 JUMP JUMPDEST PUSH1 0x40 MLOAD DUP1 SWAP2 SUB SWAP1 LOG1 POP POP JUMP JUMPDEST PUSH1 0x0 DUP1 PUSH1 0x14 SWAP1 SLOAD SWAP1 PUSH2 0x100 EXP SWAP1 DIV PUSH1 0xFF AND SWAP1 POP SWAP1 JUMP JUMPDEST PUSH2 0x41F PUSH2 0x9E2 JUMP JUMPDEST PUSH2 0x429 PUSH1 0x0 PUSH2 0xA60 JUMP JUMPDEST JUMP JUMPDEST PUSH2 0x433 PUSH2 0x990 JUMP JUMPDEST PUSH1 0x0 PUSH2 0x449 PUSH2 0x440 PUSH2 0x9DA JUMP JUMPDEST DUP7 DUP7 DUP7 DUP7 PUSH2 0x8D0 JUMP JUMPDEST SWAP1 POP PUSH1 0x0 PUSH1 0x1 PUSH1 0x0 DUP4 DUP2 MSTORE PUSH1 0x20 ADD SWAP1 DUP2 MSTORE PUSH1 0x20 ADD PUSH1 0x0 KECCAK256 SWAP1 POP DUP1 PUSH1 0x0 ADD PUSH1 0x0 SWAP1 SLOAD SWAP1 PUSH2 0x100 EXP SWAP1 DIV PUSH1 0xFF AND ISZERO DUP1 ISZERO PUSH2 0x4D1 JUMPI POP PUSH1 0x0 PUSH20 0xFFFFFFFFFFFFFFFFFFFFFFFFFFFFFFFFFFFFFFFF AND DUP2 PUSH1 0x0 ADD PUSH1 0x1 SWAP1 SLOAD SWAP1 PUSH2 0x100 EXP SWAP1 DIV PUSH20 0xFFFFFFFFFFFFFFFFFFFFFFFFFFFFFFFFFFFFFFFF AND PUSH20 0xFFFFFFFFFFFFFFFFFFFFFFFFFFFFFFFFFFFFFFFF AND EQ JUMPDEST PUSH2 0x510 JUMPI PUSH1 0x40 MLOAD PUSH32 0x8C379A000000000000000000000000000000000000000000000000000000000 DUP2 MSTORE PUSH1 0x4 ADD PUSH2 0x507 SWAP1 PUSH2 0x12BB JUMP JUMPDEST PUSH1 0x40 MLOAD DUP1 SWAP2 SUB SWAP1 REVERT JUMPDEST PUSH1 0x1 DUP2 PUSH1 0x0 ADD PUSH1 0x0 PUSH2 0x100 EXP DUP2 SLOAD DUP2 PUSH1 0xFF MUL NOT AND SWAP1 DUP4 ISZERO ISZERO MUL OR SWAP1 SSTORE POP PUSH2 0x535 PUSH2 0x9DA JUMP JUMPDEST DUP2 PUSH1 0x0 ADD PUSH1 0x1 PUSH2 0x100 EXP DUP2 SLOAD DUP2 PUSH20 0xFFFFFFFFFFFFFFFFFFFFFFFFFFFFFFFFFFFFFFFF MUL NOT AND SWAP1 DUP4 PUSH20 0xFFFFFFFFFFFFFFFFFFFFFFFFFFFFFFFFFFFFFFFF AND MUL OR SWAP1 SSTORE POP DUP6 DUP6 DUP3 PUSH1 0x2 ADD SWAP2 SWAP1 PUSH2 0x58A SWAP3 SWAP2 SWAP1 PUSH2 0xC32 JUMP JUMPDEST POP DUP4 DUP4 DUP3 PUSH1 0x3 ADD SWAP2 SWAP1 PUSH2 0x59E SWAP3 SWAP2 SWAP1 PUSH2 0xC32 JUMP JUMPDEST POP PUSH32 0x9BB2C9788FBE26C00BE74305FBEBEB1B918F56515EB45A297D2105DECAE3755F DUP3 PUSH1 0x40 MLOAD PUSH2 0x5CE SWAP2 SWAP1 PUSH2 0x11A0 JUMP JUMPDEST PUSH1 0x40 MLOAD DUP1 SWAP2 SUB SWAP1 LOG1 POP POP POP POP POP POP JUMP JUMPDEST PUSH1 0x0 DUP1 PUSH1 0x0 SWAP1 SLOAD SWAP1 PUSH2 0x100 EXP SWAP1 DIV PUSH20 0xFFFFFFFFFFFFFFFFFFFFFFFFFFFFFFFFFFFFFFFF AND SWAP1 POP SWAP1 JUMP JUMPDEST PUSH2 0x60F PUSH2 0x9E2 JUMP JUMPDEST PUSH2 0x617 PUSH2 0x401 JUMP JUMPDEST PUSH2 0x628 JUMPI PUSH2 0x623 PUSH2 0xB24 JUMP JUMPDEST PUSH2 0x631 JUMP JUMPDEST PUSH2 0x630 PUSH2 0xB87 JUMP JUMPDEST JUMPDEST JUMP JUMPDEST PUSH2 0x63B PUSH2 0xCB8 JUMP JUMPDEST PUSH1 0x1 PUSH1 0x0 DUP4 DUP2 MSTORE PUSH1 0x20 ADD SWAP1 DUP2 MSTORE PUSH1 0x20 ADD PUSH1 0x0 KECCAK256 PUSH1 0x40 MLOAD DUP1 PUSH1 0xA0 ADD PUSH1 0x40 MSTORE SWAP1 DUP2 PUSH1 0x0 DUP3 ADD PUSH1 0x0 SWAP1 SLOAD SWAP1 PUSH2 0x100 EXP SWAP1 DIV PUSH1 0xFF AND ISZERO ISZERO ISZERO ISZERO DUP2 MSTORE PUSH1 0x20 ADD PUSH1 0x0 DUP3 ADD PUSH1 0x1 SWAP1 SLOAD SWAP1 PUSH2 0x100 EXP SWAP1 DIV PUSH20 0xFFFFFFFFFFFFFFFFFFFFFFFFFFFFFFFFFFFFFFFF AND PUSH20 0xFFFFFFFFFFFFFFFFFFFFFFFFFFFFFFFFFFFFFFFF AND PUSH20 0xFFFFFFFFFFFFFFFFFFFFFFFFFFFFFFFFFFFFFFFF AND DUP2 MSTORE PUSH1 0x20 ADD PUSH1 0x1 DUP3 ADD SLOAD DUP2 MSTORE PUSH1 0x20 ADD PUSH1 0x2 DUP3 ADD DUP1 SLOAD PUSH2 0x6E4 SWAP1 PUSH2 0x1434 JUMP JUMPDEST DUP1 PUSH1 0x1F ADD PUSH1 0x20 DUP1 SWAP2 DIV MUL PUSH1 0x20 ADD PUSH1 0x40 MLOAD SWAP1 DUP2 ADD PUSH1 0x40 MSTORE DUP1 SWAP3 SWAP2 SWAP1 DUP2 DUP2 MSTORE PUSH1 0x20 ADD DUP3 DUP1 SLOAD PUSH2 0x710 SWAP1 PUSH2 0x1434 JUMP JUMPDEST DUP1 ISZERO PUSH2 0x75D JUMPI DUP1 PUSH1 0x1F LT PUSH2 0x732 JUMPI PUSH2 0x100 DUP1 DUP4 SLOAD DIV MUL DUP4 MSTORE SWAP2 PUSH1 0x20 ADD SWAP2 PUSH2 0x75D JUMP JUMPDEST DUP3 ADD SWAP2 SWAP1 PUSH1 0x0 MSTORE PUSH1 0x20 PUSH1 0x0 KECCAK256 SWAP1 JUMPDEST DUP2 SLOAD DUP2 MSTORE SWAP1 PUSH1 0x1 ADD SWAP1 PUSH1 0x20 ADD DUP1 DUP4 GT PUSH2 0x740 JUMPI DUP3 SWAP1 SUB PUSH1 0x1F AND DUP3 ADD SWAP2 JUMPDEST POP POP POP POP POP DUP2 MSTORE PUSH1 0x20 ADD PUSH1 0x3 DUP3 ADD DUP1 SLOAD PUSH2 0x776 SWAP1 PUSH2 0x1434 JUMP JUMPDEST DUP1 PUSH1 0x1F ADD PUSH1 0x20 DUP1 SWAP2 DIV MUL PUSH1 0x20 ADD PUSH1 0x40 MLOAD SWAP1 DUP2 ADD PUSH1 0x40 MSTORE DUP1 SWAP3 SWAP2 SWAP1 DUP2 DUP2 MSTORE PUSH1 0x20 ADD DUP3 DUP1 SLOAD PUSH2 0x7A2 SWAP1 PUSH2 0x1434 JUMP JUMPDEST DUP1 ISZERO PUSH2 0x7EF JUMPI DUP1 PUSH1 0x1F LT PUSH2 0x7C4 JUMPI PUSH2 0x100 DUP1 DUP4 SLOAD DIV MUL DUP4 MSTORE SWAP2 PUSH1 0x20 ADD SWAP2 PUSH2 0x7EF JUMP JUMPDEST DUP3 ADD SWAP2 SWAP1 PUSH1 0x0 MSTORE PUSH1 0x20 PUSH1 0x0 KECCAK256 SWAP1 JUMPDEST DUP2 SLOAD DUP2 MSTORE SWAP1 PUSH1 0x1 ADD SWAP1 PUSH1 0x20 ADD DUP1 DUP4 GT PUSH2 0x7D2 JUMPI DUP3 SWAP1 SUB PUSH1 0x1F AND DUP3 ADD SWAP2 JUMPDEST POP POP POP POP POP DUP2 MSTORE POP POP SWAP1 POP SWAP2 SWAP1 POP JUMP JUMPDEST PUSH2 0x807 PUSH2 0x990 JUMP JUMPDEST PUSH1 0x0 PUSH1 0x1 PUSH1 0x0 DUP4 DUP2 MSTORE PUSH1 0x20 ADD SWAP1 DUP2 MSTORE PUSH1 0x20 ADD PUSH1 0x0 KECCAK256 SWAP1 POP DUP1 PUSH1 0x0 ADD PUSH1 0x0 SWAP1 SLOAD SWAP1 PUSH2 0x100 EXP SWAP1 DIV PUSH1 0xFF AND PUSH2 0x86F JUMPI PUSH1 0x40 MLOAD PUSH32 0x8C379A000000000000000000000000000000000000000000000000000000000 DUP2 MSTORE PUSH1 0x4 ADD PUSH2 0x866 SWAP1 PUSH2 0x123B JUMP JUMPDEST PUSH1 0x40 MLOAD DUP1 SWAP2 SUB SWAP1 REVERT JUMPDEST CALLVALUE DUP2 PUSH1 0x1 ADD PUSH1 0x0 DUP3 DUP3 SLOAD PUSH2 0x883 SWAP2 SWAP1 PUSH2 0x134A JUMP JUMPDEST SWAP3 POP POP DUP2 SWAP1 SSTORE POP PUSH32 0x9923008504D88018BE8237B38FC9E7FE856EFD8A47BE5ADF7C6EE48FFF5BEB21 DUP3 PUSH2 0x8B4 PUSH2 0x9DA JUMP JUMPDEST CALLVALUE PUSH1 0x40 MLOAD PUSH2 0x8C4 SWAP4 SWAP3 SWAP2 SWAP1 PUSH2 0x11BB JUMP JUMPDEST PUSH1 0x40 MLOAD DUP1 SWAP2 SUB SWAP1 LOG1 POP POP JUMP JUMPDEST PUSH1 0x0 DUP6 DUP6 DUP6 DUP6 DUP6 PUSH1 0x40 MLOAD PUSH1 0x20 ADD PUSH2 0x8EB SWAP6 SWAP5 SWAP4 SWAP3 SWAP2 SWAP1 PUSH2 0x113C JUMP JUMPDEST PUSH1 0x40 MLOAD PUSH1 0x20 DUP2 DUP4 SUB SUB DUP2 MSTORE SWAP1 PUSH1 0x40 MSTORE DUP1 MLOAD SWAP1 PUSH1 0x20 ADD KECCAK256 SWAP1 POP SWAP6 SWAP5 POP POP POP POP POP JUMP JUMPDEST PUSH2 0x914 PUSH2 0x9E2 JUMP JUMPDEST PUSH1 0x0 PUSH20 0xFFFFFFFFFFFFFFFFFFFFFFFFFFFFFFFFFFFFFFFF AND DUP2 PUSH20 0xFFFFFFFFFFFFFFFFFFFFFFFFFFFFFFFFFFFFFFFF AND EQ ISZERO PUSH2 0x984 JUMPI PUSH1 0x40 MLOAD PUSH32 0x8C379A000000000000000000000000000000000000000000000000000000000 DUP2 MSTORE PUSH1 0x4 ADD PUSH2 0x97B SWAP1 PUSH2 0x127B JUMP JUMPDEST PUSH1 0x40 MLOAD DUP1 SWAP2 SUB SWAP1 REVERT JUMPDEST PUSH2 0x98D DUP2 PUSH2 0xA60 JUMP JUMPDEST POP JUMP JUMPDEST PUSH2 0x998 PUSH2 0x401 JUMP JUMPDEST ISZERO PUSH2 0x9D8 JUMPI PUSH1 0x40 MLOAD PUSH32 0x8C379A000000000000000000000000000000000000000000000000000000000 DUP2 MSTORE PUSH1 0x4 ADD PUSH2 0x9CF SWAP1 PUSH2 0x129B JUMP JUMPDEST PUSH1 0x40 MLOAD DUP1 SWAP2 SUB SWAP1 REVERT JUMPDEST JUMP JUMPDEST PUSH1 0x0 CALLER SWAP1 POP SWAP1 JUMP JUMPDEST PUSH2 0x9EA PUSH2 0x9DA JUMP JUMPDEST PUSH20 0xFFFFFFFFFFFFFFFFFFFFFFFFFFFFFFFFFFFFFFFF AND PUSH2 0xA08 PUSH2 0x5DE JUMP JUMPDEST PUSH20 0xFFFFFFFFFFFFFFFFFFFFFFFFFFFFFFFFFFFFFFFF AND EQ PUSH2 0xA5E JUMPI PUSH1 0x40 MLOAD PUSH32 0x8C379A000000000000000000000000000000000000000000000000000000000 DUP2 MSTORE PUSH1 0x4 ADD PUSH2 0xA55 SWAP1 PUSH2 0x12DB JUMP JUMPDEST PUSH1 0x40 MLOAD DUP1 SWAP2 SUB SWAP1 REVERT JUMPDEST JUMP JUMPDEST PUSH1 0x0 DUP1 PUSH1 0x0 SWAP1 SLOAD SWAP1 PUSH2 0x100 EXP SWAP1 DIV PUSH20 0xFFFFFFFFFFFFFFFFFFFFFFFFFFFFFFFFFFFFFFFF AND SWAP1 POP DUP2 PUSH1 0x0 DUP1 PUSH2 0x100 EXP DUP2 SLOAD DUP2 PUSH20 0xFFFFFFFFFFFFFFFFFFFFFFFFFFFFFFFFFFFFFFFF MUL NOT AND SWAP1 DUP4 PUSH20 0xFFFFFFFFFFFFFFFFFFFFFFFFFFFFFFFFFFFFFFFF AND MUL OR SWAP1 SSTORE POP DUP2 PUSH20 0xFFFFFFFFFFFFFFFFFFFFFFFFFFFFFFFFFFFFFFFF AND DUP2 PUSH20 0xFFFFFFFFFFFFFFFFFFFFFFFFFFFFFFFFFFFFFFFF AND PUSH32 0x8BE0079C531659141344CD1FD0A4F28419497F9722A3DAAFE3B4186F6B6457E0 PUSH1 0x40 MLOAD PUSH1 0x40 MLOAD DUP1 SWAP2 SUB SWAP1 LOG3 POP POP JUMP JUMPDEST PUSH2 0xB2C PUSH2 0x990 JUMP JUMPDEST PUSH1 0x1 PUSH1 0x0 PUSH1 0x14 PUSH2 0x100 EXP DUP2 SLOAD DUP2 PUSH1 0xFF MUL NOT AND SWAP1 DUP4 ISZERO ISZERO MUL OR SWAP1 SSTORE POP PUSH32 0x62E78CEA01BEE320CD4E420270B5EA74000D11B0C9F74754EBDBFC544B05A258 PUSH2 0xB70 PUSH2 0x9DA JUMP JUMPDEST PUSH1 0x40 MLOAD PUSH2 0xB7D SWAP2 SWAP1 PUSH2 0x1121 JUMP JUMPDEST PUSH1 0x40 MLOAD DUP1 SWAP2 SUB SWAP1 LOG1 JUMP JUMPDEST PUSH2 0xB8F PUSH2 0xBE9 JUMP JUMPDEST PUSH1 0x0 DUP1 PUSH1 0x14 PUSH2 0x100 EXP DUP2 SLOAD DUP2 PUSH1 0xFF MUL NOT AND SWAP1 DUP4 ISZERO ISZERO MUL OR SWAP1 SSTORE POP PUSH32 0x5DB9EE0A495BF2E6FF9C91A7834C1BA4FDD244A5E8AA4E537BD38AEAE4B073AA PUSH2 0xBD2 PUSH2 0x9DA JUMP JUMPDEST PUSH1 0x40 MLOAD PUSH2 0xBDF SWAP2 SWAP1 PUSH2 0x1121 JUMP JUMPDEST PUSH1 0x40 MLOAD DUP1 SWAP2 SUB SWAP1 LOG1 JUMP JUMPDEST PUSH2 0xBF1 PUSH2 0x401 JUMP JUMPDEST PUSH2 0xC30 JUMPI PUSH1 0x40 MLOAD PUSH32 0x8C379A000000000000000000000000000000000000000000000000000000000 DUP2 MSTORE PUSH1 0x4 ADD PUSH2 0xC27 SWAP1 PUSH2 0x125B JUMP JUMPDEST PUSH1 0x40 MLOAD DUP1 SWAP2 SUB SWAP1 REVERT JUMPDEST JUMP JUMPDEST DUP3 DUP1 SLOAD PUSH2 0xC3E SWAP1 PUSH2 0x1434 JUMP JUMPDEST SWAP1 PUSH1 0x0 MSTORE PUSH1 0x20 PUSH1 0x0 KECCAK256 SWAP1 PUSH1 0x1F ADD PUSH1 0x20 SWAP1 DIV DUP2 ADD SWAP3 DUP3 PUSH2 0xC60 JUMPI PUSH1 0x0 DUP6 SSTORE PUSH2 0xCA7 JUMP JUMPDEST DUP3 PUSH1 0x1F LT PUSH2 0xC79 JUMPI DUP1 CALLDATALOAD PUSH1 0xFF NOT AND DUP4 DUP1 ADD OR DUP6 SSTORE PUSH2 0xCA7 JUMP JUMPDEST DUP3 DUP1 ADD PUSH1 0x1 ADD DUP6 SSTORE DUP3 ISZERO PUSH2 0xCA7 JUMPI SWAP2 DUP3 ADD JUMPDEST DUP3 DUP2 GT ISZERO PUSH2 0xCA6 JUMPI DUP3 CALLDATALOAD DUP3 SSTORE SWAP2 PUSH1 0x20 ADD SWAP2 SWAP1 PUSH1 0x1 ADD SWAP1 PUSH2 0xC8B JUMP JUMPDEST JUMPDEST POP SWAP1 POP PUSH2 0xCB4 SWAP2 SWAP1 PUSH2 0xCFF JUMP JUMPDEST POP SWAP1 JUMP JUMPDEST PUSH1 0x40 MLOAD DUP1 PUSH1 0xA0 ADD PUSH1 0x40 MSTORE DUP1 PUSH1 0x0 ISZERO ISZERO DUP2 MSTORE PUSH1 0x20 ADD PUSH1 0x0 PUSH20 0xFFFFFFFFFFFFFFFFFFFFFFFFFFFFFFFFFFFFFFFF AND DUP2 MSTORE PUSH1 0x20 ADD PUSH1 0x0 DUP2 MSTORE PUSH1 0x20 ADD PUSH1 0x60 DUP2 MSTORE PUSH1 0x20 ADD PUSH1 0x60 DUP2 MSTORE POP SWAP1 JUMP JUMPDEST JUMPDEST DUP1 DUP3 GT ISZERO PUSH2 0xD18 JUMPI PUSH1 0x0 DUP2 PUSH1 0x0 SWAP1 SSTORE POP PUSH1 0x1 ADD PUSH2 0xD00 JUMP JUMPDEST POP SWAP1 JUMP JUMPDEST PUSH1 0x0 DUP2 CALLDATALOAD SWAP1 POP PUSH2 0xD2B DUP2 PUSH2 0x161A JUMP JUMPDEST SWAP3 SWAP2 POP POP JUMP JUMPDEST PUSH1 0x0 DUP2 CALLDATALOAD SWAP1 POP PUSH2 0xD40 DUP2 PUSH2 0x1631 JUMP JUMPDEST SWAP3 SWAP2 POP POP JUMP JUMPDEST PUSH1 0x0 DUP1 DUP4 PUSH1 0x1F DUP5 ADD SLT PUSH2 0xD58 JUMPI PUSH1 0x0 DUP1 REVERT JUMPDEST DUP3 CALLDATALOAD SWAP1 POP PUSH8 0xFFFFFFFFFFFFFFFF DUP2 GT ISZERO PUSH2 0xD71 JUMPI PUSH1 0x0 DUP1 REVERT JUMPDEST PUSH1 0x20 DUP4 ADD SWAP2 POP DUP4 PUSH1 0x1 DUP3 MUL DUP4 ADD GT ISZERO PUSH2 0xD89 JUMPI PUSH1 0x0 DUP1 REVERT JUMPDEST SWAP3 POP SWAP3 SWAP1 POP JUMP JUMPDEST PUSH1 0x0 PUSH1 0x20 DUP3 DUP5 SUB SLT ISZERO PUSH2 0xDA2 JUMPI PUSH1 0x0 DUP1 REVERT JUMPDEST PUSH1 0x0 PUSH2 0xDB0 DUP5 DUP3 DUP6 ADD PUSH2 0xD1C JUMP JUMPDEST SWAP2 POP POP SWAP3 SWAP2 POP POP JUMP JUMPDEST PUSH1 0x0 DUP1 PUSH1 0x0 DUP1 PUSH1 0x0 PUSH1 0x60 DUP7 DUP9 SUB SLT ISZERO PUSH2 0xDD1 JUMPI PUSH1 0x0 DUP1 REVERT JUMPDEST PUSH1 0x0 PUSH2 0xDDF DUP9 DUP3 DUP10 ADD PUSH2 0xD1C JUMP JUMPDEST SWAP6 POP POP PUSH1 0x20 DUP7 ADD CALLDATALOAD PUSH8 0xFFFFFFFFFFFFFFFF DUP2 GT ISZERO PUSH2 0xDFC JUMPI PUSH1 0x0 DUP1 REVERT JUMPDEST PUSH2 0xE08 DUP9 DUP3 DUP10 ADD PUSH2 0xD46 JUMP JUMPDEST SWAP5 POP SWAP5 POP POP PUSH1 0x40 DUP7 ADD CALLDATALOAD PUSH8 0xFFFFFFFFFFFFFFFF DUP2 GT ISZERO PUSH2 0xE27 JUMPI PUSH1 0x0 DUP1 REVERT JUMPDEST PUSH2 0xE33 DUP9 DUP3 DUP10 ADD PUSH2 0xD46 JUMP JUMPDEST SWAP3 POP SWAP3 POP POP SWAP3 SWAP6 POP SWAP3 SWAP6 SWAP1 SWAP4 POP JUMP JUMPDEST PUSH1 0x0 PUSH1 0x20 DUP3 DUP5 SUB SLT ISZERO PUSH2 0xE54 JUMPI PUSH1 0x0 DUP1 REVERT JUMPDEST PUSH1 0x0 PUSH2 0xE62 DUP5 DUP3 DUP6 ADD PUSH2 0xD31 JUMP JUMPDEST SWAP2 POP POP SWAP3 SWAP2 POP POP JUMP JUMPDEST PUSH1 0x0 DUP1 PUSH1 0x0 DUP1 PUSH1 0x40 DUP6 DUP8 SUB SLT ISZERO PUSH2 0xE81 JUMPI PUSH1 0x0 DUP1 REVERT JUMPDEST PUSH1 0x0 DUP6 ADD CALLDATALOAD PUSH8 0xFFFFFFFFFFFFFFFF DUP2 GT ISZERO PUSH2 0xE9B JUMPI PUSH1 0x0 DUP1 REVERT JUMPDEST PUSH2 0xEA7 DUP8 DUP3 DUP9 ADD PUSH2 0xD46 JUMP JUMPDEST SWAP5 POP SWAP5 POP POP PUSH1 0x20 DUP6 ADD CALLDATALOAD PUSH8 0xFFFFFFFFFFFFFFFF DUP2 GT ISZERO PUSH2 0xEC6 JUMPI PUSH1 0x0 DUP1 REVERT JUMPDEST PUSH2 0xED2 DUP8 DUP3 DUP9 ADD PUSH2 0xD46 JUMP JUMPDEST SWAP3 POP SWAP3 POP POP SWAP3 SWAP6 SWAP2 SWAP5 POP SWAP3 POP JUMP JUMPDEST PUSH2 0xEE9 DUP2 PUSH2 0x13A0 JUMP JUMPDEST DUP3 MSTORE POP POP JUMP JUMPDEST PUSH2 0xEF8 DUP2 PUSH2 0x13A0 JUMP JUMPDEST DUP3 MSTORE POP POP JUMP JUMPDEST PUSH2 0xF07 DUP2 PUSH2 0x13B2 JUMP JUMPDEST DUP3 MSTORE POP POP JUMP JUMPDEST PUSH2 0xF16 DUP2 PUSH2 0x13B2 JUMP JUMPDEST DUP3 MSTORE POP POP JUMP JUMPDEST PUSH2 0xF25 DUP2 PUSH2 0x13BE JUMP JUMPDEST DUP3 MSTORE POP POP JUMP JUMPDEST PUSH1 0x0 PUSH2 0xF37 DUP4 DUP6 PUSH2 0x1339 JUMP JUMPDEST SWAP4 POP PUSH2 0xF44 DUP4 DUP6 DUP5 PUSH2 0x13F2 JUMP JUMPDEST PUSH2 0xF4D DUP4 PUSH2 0x14C4 JUMP JUMPDEST DUP5 ADD SWAP1 POP SWAP4 SWAP3 POP POP POP JUMP JUMPDEST PUSH1 0x0 PUSH2 0xF63 DUP3 PUSH2 0x131D JUMP JUMPDEST PUSH2 0xF6D DUP2 DUP6 PUSH2 0x1328 JUMP JUMPDEST SWAP4 POP PUSH2 0xF7D DUP2 DUP6 PUSH1 0x20 DUP7 ADD PUSH2 0x1401 JUMP JUMPDEST PUSH2 0xF86 DUP2 PUSH2 0x14C4 JUMP JUMPDEST DUP5 ADD SWAP2 POP POP SWAP3 SWAP2 POP POP JUMP JUMPDEST PUSH1 0x0 PUSH2 0xF9E PUSH1 0x12 DUP4 PUSH2 0x1339 JUMP JUMPDEST SWAP2 POP PUSH2 0xFA9 DUP3 PUSH2 0x14D5 JUMP JUMPDEST PUSH1 0x20 DUP3 ADD SWAP1 POP SWAP2 SWAP1 POP JUMP JUMPDEST PUSH1 0x0 PUSH2 0xFC1 PUSH1 0xD DUP4 PUSH2 0x1339 JUMP JUMPDEST SWAP2 POP PUSH2 0xFCC DUP3 PUSH2 0x14FE JUMP JUMPDEST PUSH1 0x20 DUP3 ADD SWAP1 POP SWAP2 SWAP1 POP JUMP JUMPDEST PUSH1 0x0 PUSH2 0xFE4 PUSH1 0x14 DUP4 PUSH2 0x1339 JUMP JUMPDEST SWAP2 POP PUSH2 0xFEF DUP3 PUSH2 0x1527 JUMP JUMPDEST PUSH1 0x20 DUP3 ADD SWAP1 POP SWAP2 SWAP1 POP JUMP JUMPDEST PUSH1 0x0 PUSH2 0x1007 PUSH1 0x26 DUP4 PUSH2 0x1339 JUMP JUMPDEST SWAP2 POP PUSH2 0x1012 DUP3 PUSH2 0x1550 JUMP JUMPDEST PUSH1 0x40 DUP3 ADD SWAP1 POP SWAP2 SWAP1 POP JUMP JUMPDEST PUSH1 0x0 PUSH2 0x102A PUSH1 0x10 DUP4 PUSH2 0x1339 JUMP JUMPDEST SWAP2 POP PUSH2 0x1035 DUP3 PUSH2 0x159F JUMP JUMPDEST PUSH1 0x20 DUP3 ADD SWAP1 POP SWAP2 SWAP1 POP JUMP JUMPDEST PUSH1 0x0 PUSH2 0x104D PUSH1 0xF DUP4 PUSH2 0x1339 JUMP JUMPDEST SWAP2 POP PUSH2 0x1058 DUP3 PUSH2 0x15C8 JUMP JUMPDEST PUSH1 0x20 DUP3 ADD SWAP1 POP SWAP2 SWAP1 POP JUMP JUMPDEST PUSH1 0x0 PUSH2 0x1070 PUSH1 0x20 DUP4 PUSH2 0x1339 JUMP JUMPDEST SWAP2 POP PUSH2 0x107B DUP3 PUSH2 0x15F1 JUMP JUMPDEST PUSH1 0x20 DUP3 ADD SWAP1 POP SWAP2 SWAP1 POP JUMP JUMPDEST PUSH1 0x0 PUSH1 0xA0 DUP4 ADD PUSH1 0x0 DUP4 ADD MLOAD PUSH2 0x109E PUSH1 0x0 DUP7 ADD DUP3 PUSH2 0xEFE JUMP JUMPDEST POP PUSH1 0x20 DUP4 ADD MLOAD PUSH2 0x10B1 PUSH1 0x20 DUP7 ADD DUP3 PUSH2 0xEE0 JUMP JUMPDEST POP PUSH1 0x40 DUP4 ADD MLOAD PUSH2 0x10C4 PUSH1 0x40 DUP7 ADD DUP3 PUSH2 0x1103 JUMP JUMPDEST POP PUSH1 0x60 DUP4 ADD MLOAD DUP5 DUP3 SUB PUSH1 0x60 DUP7 ADD MSTORE PUSH2 0x10DC DUP3 DUP3 PUSH2 0xF58 JUMP JUMPDEST SWAP2 POP POP PUSH1 0x80 DUP4 ADD MLOAD DUP5 DUP3 SUB PUSH1 0x80 DUP7 ADD MSTORE PUSH2 0x10F6 DUP3 DUP3 PUSH2 0xF58 JUMP JUMPDEST SWAP2 POP POP DUP1 SWAP2 POP POP SWAP3 SWAP2 POP POP JUMP JUMPDEST PUSH2 0x110C DUP2 PUSH2 0x13E8 JUMP JUMPDEST DUP3 MSTORE POP POP JUMP JUMPDEST PUSH2 0x111B DUP2 PUSH2 0x13E8 JUMP JUMPDEST DUP3 MSTORE POP POP JUMP JUMPDEST PUSH1 0x0 PUSH1 0x20 DUP3 ADD SWAP1 POP PUSH2 0x1136 PUSH1 0x0 DUP4 ADD DUP5 PUSH2 0xEEF JUMP JUMPDEST SWAP3 SWAP2 POP POP JUMP JUMPDEST PUSH1 0x0 PUSH1 0x60 DUP3 ADD SWAP1 POP PUSH2 0x1151 PUSH1 0x0 DUP4 ADD DUP9 PUSH2 0xEEF JUMP JUMPDEST DUP2 DUP2 SUB PUSH1 0x20 DUP4 ADD MSTORE PUSH2 0x1164 DUP2 DUP7 DUP9 PUSH2 0xF2B JUMP JUMPDEST SWAP1 POP DUP2 DUP2 SUB PUSH1 0x40 DUP4 ADD MSTORE PUSH2 0x1179 DUP2 DUP5 DUP7 PUSH2 0xF2B JUMP JUMPDEST SWAP1 POP SWAP7 SWAP6 POP POP POP POP POP POP JUMP JUMPDEST PUSH1 0x0 PUSH1 0x20 DUP3 ADD SWAP1 POP PUSH2 0x119A PUSH1 0x0 DUP4 ADD DUP5 PUSH2 0xF0D JUMP JUMPDEST SWAP3 SWAP2 POP POP JUMP JUMPDEST PUSH1 0x0 PUSH1 0x20 DUP3 ADD SWAP1 POP PUSH2 0x11B5 PUSH1 0x0 DUP4 ADD DUP5 PUSH2 0xF1C JUMP JUMPDEST SWAP3 SWAP2 POP POP JUMP JUMPDEST PUSH1 0x0 PUSH1 0x60 DUP3 ADD SWAP1 POP PUSH2 0x11D0 PUSH1 0x0 DUP4 ADD DUP7 PUSH2 0xF1C JUMP JUMPDEST PUSH2 0x11DD PUSH1 0x20 DUP4 ADD DUP6 PUSH2 0xEEF JUMP JUMPDEST PUSH2 0x11EA PUSH1 0x40 DUP4 ADD DUP5 PUSH2 0x1112 JUMP JUMPDEST SWAP5 SWAP4 POP POP POP POP JUMP JUMPDEST PUSH1 0x0 PUSH1 0x40 DUP3 ADD SWAP1 POP PUSH2 0x1207 PUSH1 0x0 DUP4 ADD DUP6 PUSH2 0xF1C JUMP JUMPDEST PUSH2 0x1214 PUSH1 0x20 DUP4 ADD DUP5 PUSH2 0x1112 JUMP JUMPDEST SWAP4 SWAP3 POP POP POP JUMP JUMPDEST PUSH1 0x0 PUSH1 0x20 DUP3 ADD SWAP1 POP DUP2 DUP2 SUB PUSH1 0x0 DUP4 ADD MSTORE PUSH2 0x1234 DUP2 PUSH2 0xF91 JUMP JUMPDEST SWAP1 POP SWAP2 SWAP1 POP JUMP JUMPDEST PUSH1 0x0 PUSH1 0x20 DUP3 ADD SWAP1 POP DUP2 DUP2 SUB PUSH1 0x0 DUP4 ADD MSTORE PUSH2 0x1254 DUP2 PUSH2 0xFB4 JUMP JUMPDEST SWAP1 POP SWAP2 SWAP1 POP JUMP JUMPDEST PUSH1 0x0 PUSH1 0x20 DUP3 ADD SWAP1 POP DUP2 DUP2 SUB PUSH1 0x0 DUP4 ADD MSTORE PUSH2 0x1274 DUP2 PUSH2 0xFD7 JUMP JUMPDEST SWAP1 POP SWAP2 SWAP1 POP JUMP JUMPDEST PUSH1 0x0 PUSH1 0x20 DUP3 ADD SWAP1 POP DUP2 DUP2 SUB PUSH1 0x0 DUP4 ADD MSTORE PUSH2 0x1294 DUP2 PUSH2 0xFFA JUMP JUMPDEST SWAP1 POP SWAP2 SWAP1 POP JUMP JUMPDEST PUSH1 0x0 PUSH1 0x20 DUP3 ADD SWAP1 POP DUP2 DUP2 SUB PUSH1 0x0 DUP4 ADD MSTORE PUSH2 0x12B4 DUP2 PUSH2 0x101D JUMP JUMPDEST SWAP1 POP SWAP2 SWAP1 POP JUMP JUMPDEST PUSH1 0x0 PUSH1 0x20 DUP3 ADD SWAP1 POP DUP2 DUP2 SUB PUSH1 0x0 DUP4 ADD MSTORE PUSH2 0x12D4 DUP2 PUSH2 0x1040 JUMP JUMPDEST SWAP1 POP SWAP2 SWAP1 POP JUMP JUMPDEST PUSH1 0x0 PUSH1 0x20 DUP3 ADD SWAP1 POP DUP2 DUP2 SUB PUSH1 0x0 DUP4 ADD MSTORE PUSH2 0x12F4 DUP2 PUSH2 0x1063 JUMP JUMPDEST SWAP1 POP SWAP2 SWAP1 POP JUMP JUMPDEST PUSH1 0x0 PUSH1 0x20 DUP3 ADD SWAP1 POP DUP2 DUP2 SUB PUSH1 0x0 DUP4 ADD MSTORE PUSH2 0x1315 DUP2 DUP5 PUSH2 0x1086 JUMP JUMPDEST SWAP1 POP SWAP3 SWAP2 POP POP JUMP JUMPDEST PUSH1 0x0 DUP2 MLOAD SWAP1 POP SWAP2 SWAP1 POP JUMP JUMPDEST PUSH1 0x0 DUP3 DUP3 MSTORE PUSH1 0x20 DUP3 ADD SWAP1 POP SWAP3 SWAP2 POP POP JUMP JUMPDEST PUSH1 0x0 DUP3 DUP3 MSTORE PUSH1 0x20 DUP3 ADD SWAP1 POP SWAP3 SWAP2 POP POP JUMP JUMPDEST PUSH1 0x0 PUSH2 0x1355 DUP3 PUSH2 0x13E8 JUMP JUMPDEST SWAP2 POP PUSH2 0x1360 DUP4 PUSH2 0x13E8 JUMP JUMPDEST SWAP3 POP DUP3 PUSH32 0xFFFFFFFFFFFFFFFFFFFFFFFFFFFFFFFFFFFFFFFFFFFFFFFFFFFFFFFFFFFFFFFF SUB DUP3 GT ISZERO PUSH2 0x1395 JUMPI PUSH2 0x1394 PUSH2 0x1466 JUMP JUMPDEST JUMPDEST DUP3 DUP3 ADD SWAP1 POP SWAP3 SWAP2 POP POP JUMP JUMPDEST PUSH1 0x0 PUSH2 0x13AB DUP3 PUSH2 0x13C8 JUMP JUMPDEST SWAP1 POP SWAP2 SWAP1 POP JUMP JUMPDEST PUSH1 0x0 DUP2 ISZERO ISZERO SWAP1 POP SWAP2 SWAP1 POP JUMP JUMPDEST PUSH1 0x0 DUP2 SWAP1 POP SWAP2 SWAP1 POP JUMP JUMPDEST PUSH1 0x0 PUSH20 0xFFFFFFFFFFFFFFFFFFFFFFFFFFFFFFFFFFFFFFFF DUP3 AND SWAP1 POP SWAP2 SWAP1 POP JUMP JUMPDEST PUSH1 0x0 DUP2 SWAP1 POP SWAP2 SWAP1 POP JUMP JUMPDEST DUP3 DUP2 DUP4 CALLDATACOPY PUSH1 0x0 DUP4 DUP4 ADD MSTORE POP POP POP JUMP JUMPDEST PUSH1 0x0 JUMPDEST DUP4 DUP2 LT ISZERO PUSH2 0x141F JUMPI DUP1 DUP3 ADD MLOAD DUP2 DUP5 ADD MSTORE PUSH1 0x20 DUP2 ADD SWAP1 POP PUSH2 0x1404 JUMP JUMPDEST DUP4 DUP2 GT ISZERO PUSH2 0x142E JUMPI PUSH1 0x0 DUP5 DUP5 ADD MSTORE JUMPDEST POP POP POP POP JUMP JUMPDEST PUSH1 0x0 PUSH1 0x2 DUP3 DIV SWAP1 POP PUSH1 0x1 DUP3 AND DUP1 PUSH2 0x144C JUMPI PUSH1 0x7F DUP3 AND SWAP2 POP JUMPDEST PUSH1 0x20 DUP3 LT DUP2 EQ ISZERO PUSH2 0x1460 JUMPI PUSH2 0x145F PUSH2 0x1495 JUMP JUMPDEST JUMPDEST POP SWAP2 SWAP1 POP JUMP JUMPDEST PUSH32 0x4E487B7100000000000000000000000000000000000000000000000000000000 PUSH1 0x0 MSTORE PUSH1 0x11 PUSH1 0x4 MSTORE PUSH1 0x24 PUSH1 0x0 REVERT JUMPDEST PUSH32 0x4E487B7100000000000000000000000000000000000000000000000000000000 PUSH1 0x0 MSTORE PUSH1 0x22 PUSH1 0x4 MSTORE PUSH1 0x24 PUSH1 0x0 REVERT JUMPDEST PUSH1 0x0 PUSH1 0x1F NOT PUSH1 0x1F DUP4 ADD AND SWAP1 POP SWAP2 SWAP1 POP JUMP JUMPDEST PUSH32 0x4E6F742063616D706169676E206F776E65720000000000000000000000000000 PUSH1 0x0 DUP3 ADD MSTORE POP JUMP JUMPDEST PUSH32 0x416C726561647920656E64656400000000000000000000000000000000000000 PUSH1 0x0 DUP3 ADD MSTORE POP JUMP JUMPDEST PUSH32 0x5061757361626C653A206E6F7420706175736564000000000000000000000000 PUSH1 0x0 DUP3 ADD MSTORE POP JUMP JUMPDEST PUSH32 0x4F776E61626C653A206E6577206F776E657220697320746865207A65726F2061 PUSH1 0x0 DUP3 ADD MSTORE PUSH32 0x6464726573730000000000000000000000000000000000000000000000000000 PUSH1 0x20 DUP3 ADD MSTORE POP JUMP JUMPDEST PUSH32 0x5061757361626C653A2070617573656400000000000000000000000000000000 PUSH1 0x0 DUP3 ADD MSTORE POP JUMP JUMPDEST PUSH32 0x43616D706169676E206578697374730000000000000000000000000000000000 PUSH1 0x0 DUP3 ADD MSTORE POP JUMP JUMPDEST PUSH32 0x4F776E61626C653A2063616C6C6572206973206E6F7420746865206F776E6572 PUSH1 0x0 DUP3 ADD MSTORE POP JUMP JUMPDEST PUSH2 0x1623 DUP2 PUSH2 0x13A0 JUMP JUMPDEST DUP2 EQ PUSH2 0x162E JUMPI PUSH1 0x0 DUP1 REVERT JUMPDEST POP JUMP JUMPDEST PUSH2 0x163A DUP2 PUSH2 0x13BE JUMP JUMPDEST DUP2 EQ PUSH2 0x1645 JUMPI PUSH1 0x0 DUP1 REVERT JUMPDEST POP JUMP INVALID LOG2 PUSH5 0x6970667358 0x22 SLT KECCAK256 0xDF 0xA7 0xDE 0xE9 DUP1 0xC2 SWAP1 DELEGATECALL TIMESTAMP DUP11 0x2A 0xAC OR CALLVALUE 0xEB CODESIZE GASPRICE CODECOPY SELFDESTRUCT DUP4 XOR PUSH3 0x8ED7D4 CALLDATACOPY PUSH11 0x6F23989B2964736F6C6343 STOP ADDMOD DIV STOP CALLER "
        },
        "methodIdentifiers": {
          "donateToCampaign(bytes32)": "e13475c8",
          "endCampaign(bytes32)": "29777bc6",
          "getCampaign(bytes32)": "cabe0452",
          "getCampaignId(address,string,string)": "e1b86016",
          "owner()": "8da5cb5b",
          "paused()": "5c975abb",
          "renounceOwnership()": "715018a6",
          "startCampaign(string,string)": "8c26a73d",
          "togglePause()": "c4ae3168",
          "transferOwnership(address)": "f2fde38b"
        }
      },
      "storageLayout": {
        "storage": [
          {
            "astId": 7,
            "contract": "contracts/ComeFundMe.sol:ComeFundMe",
            "label": "_owner",
            "offset": 0,
            "slot": "0",
            "type": "t_address"
          },
          {
            "astId": 130,
            "contract": "contracts/ComeFundMe.sol:ComeFundMe",
            "label": "_paused",
            "offset": 20,
            "slot": "0",
            "type": "t_bool"
          },
          {
            "astId": 266,
            "contract": "contracts/ComeFundMe.sol:ComeFundMe",
            "label": "_campaigns",
            "offset": 0,
            "slot": "1",
            "type": "t_mapping(t_bytes32,t_struct(Campaign)261_storage)"
          }
        ],
        "types": {
          "t_address": {
            "encoding": "inplace",
            "label": "address",
            "numberOfBytes": "20"
          },
          "t_bool": {
            "encoding": "inplace",
            "label": "bool",
            "numberOfBytes": "1"
          },
          "t_bytes32": {
            "encoding": "inplace",
            "label": "bytes32",
            "numberOfBytes": "32"
          },
          "t_mapping(t_bytes32,t_struct(Campaign)261_storage)": {
            "encoding": "mapping",
            "key": "t_bytes32",
            "label": "mapping(bytes32 => struct ComeFundMe.Campaign)",
            "numberOfBytes": "32",
            "value": "t_struct(Campaign)261_storage"
          },
          "t_string_storage": {
            "encoding": "bytes",
            "label": "string",
            "numberOfBytes": "32"
          },
          "t_struct(Campaign)261_storage": {
            "encoding": "inplace",
            "label": "struct ComeFundMe.Campaign",
            "members": [
              {
                "astId": 252,
                "contract": "contracts/ComeFundMe.sol:ComeFundMe",
                "label": "isAlive",
                "offset": 0,
                "slot": "0",
                "type": "t_bool"
              },
              {
                "astId": 254,
                "contract": "contracts/ComeFundMe.sol:ComeFundMe",
                "label": "initiator",
                "offset": 1,
                "slot": "0",
                "type": "t_address"
              },
              {
                "astId": 256,
                "contract": "contracts/ComeFundMe.sol:ComeFundMe",
                "label": "fundsRaised",
                "offset": 0,
                "slot": "1",
                "type": "t_uint256"
              },
              {
                "astId": 258,
                "contract": "contracts/ComeFundMe.sol:ComeFundMe",
                "label": "title",
                "offset": 0,
                "slot": "2",
                "type": "t_string_storage"
              },
              {
                "astId": 260,
                "contract": "contracts/ComeFundMe.sol:ComeFundMe",
                "label": "description",
                "offset": 0,
                "slot": "3",
                "type": "t_string_storage"
              }
            ],
            "numberOfBytes": "128"
          },
          "t_uint256": {
            "encoding": "inplace",
            "label": "uint256",
            "numberOfBytes": "32"
          }
        }
      }
    }
  }
}